{
  "contractName": "stonkToken",
  "abi": [
    {
      "inputs": [],
      "payable": false,
      "stateMutability": "nonpayable",
      "type": "constructor"
    },
    {
      "constant": true,
      "inputs": [],
      "name": "_totalSupply",
      "outputs": [
        {
          "internalType": "uint256",
          "name": "",
          "type": "uint256"
        }
      ],
      "payable": false,
      "stateMutability": "view",
      "type": "function"
    },
    {
      "constant": true,
      "inputs": [],
      "name": "totalSupply",
      "outputs": [
        {
          "internalType": "uint256",
          "name": "",
          "type": "uint256"
        }
      ],
      "payable": false,
      "stateMutability": "view",
      "type": "function"
    }
  ],
  "bytecode": "0x608060405234801561001057600080fd5b5067016345785d8a000060008190555060b38061002e6000396000f3fe6080604052348015600f57600080fd5b506004361060325760003560e01c806318160ddd1460375780633eaaf86b146053575b600080fd5b603d606f565b6040518082815260200191505060405180910390f35b60596078565b6040518082815260200191505060405180910390f35b60008054905090565b6000548156fea265627a7a7231582039d6cc56cff60eea0e984c64703d13fb856b175885ce286d8eb42e9515d25c5064736f6c63430005100032",
  "source": "pragma solidity >=0.4.22 <0.9.0;\n\ncontract stonk {\n\t// Constructor\n\t// Set the total number of tokens\n\t// Read the total numbner of tokens\n    // uint _totalSupply = 4321; // <-- this creates a new storage variable\n\n    uint256 public _totalSupply;\n    function totalSupply() public view returns (uint) {\n        return _totalSupply;\n    }\n}\n\ncontract stonkToken is stonk {\n    constructor() public {\n        _totalSupply = 100000000000000000; // It is better to initialize the old variable\n    }\n}\n\n//function totalSupply() public view returns (uint256)",
  "sourcePath": "/Users/adambenaceur/Code/token_sale/contracts/stonk.sol",
  "compiler": {
    "name": "solc",
    "version": "0.5.16+commit.9c3226ce.Emscripten.clang"
  },
  "schemaVersion": "3.4.1",
  "updatedAt": "2021-06-30T08:08:56.444Z",
  "devdoc": {
    "methods": {}
  },
  "userdoc": {
    "methods": {}
  }
}